{
  "contractName": "CircuitBreaker",
  "abi": [
    {
      "inputs": [],
      "payable": false,
      "stateMutability": "nonpayable",
      "type": "constructor"
    },
    {
      "constant": true,
      "inputs": [],
      "name": "isUserAdmin",
      "outputs": [
        {
          "name": "",
          "type": "bool"
        }
      ],
      "payable": false,
      "stateMutability": "view",
      "type": "function"
    },
    {
      "constant": false,
      "inputs": [],
      "name": "toggleContractActive",
      "outputs": [],
      "payable": false,
      "stateMutability": "nonpayable",
      "type": "function"
    },
    {
      "constant": true,
      "inputs": [],
      "name": "isStopped",
      "outputs": [
        {
          "name": "",
          "type": "bool"
        }
      ],
      "payable": false,
      "stateMutability": "view",
      "type": "function"
    }
  ],
  "bytecode": "0x608060405260008060006101000a81548160ff02191690831515021790555034801561002a57600080fd5b5033600060016101000a81548173ffffffffffffffffffffffffffffffffffffffff021916908373ffffffffffffffffffffffffffffffffffffffff1602179055506102108061007b6000396000f300608060405260043610610057576000357c0100000000000000000000000000000000000000000000000000000000900463ffffffff1680631385d24c1461005c5780633f683b6a14610073578063fba0a29f146100a2575b600080fd5b34801561006857600080fd5b506100716100d1565b005b34801561007f57600080fd5b50610088610177565b604051808215151515815260200191505060405180910390f35b3480156100ae57600080fd5b506100b761018d565b604051808215151515815260200191505060405180910390f35b6100d961018d565b151561014d576040517f08c379a00000000000000000000000000000000000000000000000000000000081526004018080602001828103825260138152602001807f53656e646572206973206e6f742041646d696e0000000000000000000000000081525060200191505060405180910390fd5b6000809054906101000a900460ff16156000806101000a81548160ff021916908315150217905550565b60008060009054906101000a900460ff16905090565b60008060019054906101000a900473ffffffffffffffffffffffffffffffffffffffff1673ffffffffffffffffffffffffffffffffffffffff163373ffffffffffffffffffffffffffffffffffffffff16149050905600a165627a7a72305820d28e288fbb824bef9df89ef550b8c7830564a6a543d2bd4aeaedc6a1d48557ed0029",
  "source": "// SPDX-License-Identifier: MIT\r\n\r\npragma solidity >=0.4.22 <0.8.0;\r\n\r\ncontract CircuitBreaker {\r\n\r\n  bool private stopped = false;\r\n  address private admin;\r\n\r\n   constructor () public {\r\n    admin = msg.sender;\r\n  }\r\n\r\n  /**\r\n   * @dev Check if the current user is Admin\r\n   */\r\n  function isUserAdmin() public view returns(bool) {\r\n    return msg.sender == admin;\r\n  }\r\n  \r\n  modifier isAdmin() {\r\n    require(isUserAdmin(), \"Sender is not Admin\");\r\n    _;\r\n  }\r\n\r\n  /**\r\n   * @dev Toggle the contract state as active or in-active\r\n   */\r\n  function toggleContractActive() public isAdmin {\r\n    stopped = !stopped;\r\n  }\r\n\r\n  modifier stopInEmergency {if (!stopped) _;}\r\n  modifier onlyInEmergency {if (stopped) _;}\r\n\r\n  /**\r\n   * @dev Check if the contract state is Stopped\r\n   */\r\n  function isStopped() public view returns (bool) {\r\n    return stopped;\r\n  }\r\n\r\n}",
  "sourcePath": "C:\\Users\\Dee\\Documents\\Blockchain Developer\\BountyApp\\contracts\\CircuitBreaker.sol",
  "compiler": {
    "name": "solc",
    "version": "0.4.24+commit.e67f0147.Emscripten.clang"
  },
  "schemaVersion": "2.0.1",
  "updatedAt": "2020-11-24T13:20:34.421Z"
}